{
  "_format": "hh-sol-artifact-1",
  "contractName": "EpicNft",
  "sourceName": "contracts/EpicNft.sol",
  "abi": [
    {
      "inputs": [],
      "stateMutability": "nonpayable",
      "type": "constructor"
    },
    {
      "anonymous": false,
      "inputs": [
        {
          "indexed": true,
          "internalType": "address",
          "name": "owner",
          "type": "address"
        },
        {
          "indexed": true,
          "internalType": "address",
          "name": "approved",
          "type": "address"
        },
        {
          "indexed": true,
          "internalType": "uint256",
          "name": "tokenId",
          "type": "uint256"
        }
      ],
      "name": "Approval",
      "type": "event"
    },
    {
      "anonymous": false,
      "inputs": [
        {
          "indexed": true,
          "internalType": "address",
          "name": "owner",
          "type": "address"
        },
        {
          "indexed": true,
          "internalType": "address",
          "name": "operator",
          "type": "address"
        },
        {
          "indexed": false,
          "internalType": "bool",
          "name": "approved",
          "type": "bool"
        }
      ],
      "name": "ApprovalForAll",
      "type": "event"
    },
    {
      "anonymous": false,
      "inputs": [
        {
          "indexed": true,
          "internalType": "address",
          "name": "from",
          "type": "address"
        },
        {
          "indexed": true,
          "internalType": "address",
          "name": "to",
          "type": "address"
        },
        {
          "indexed": true,
          "internalType": "uint256",
          "name": "tokenId",
          "type": "uint256"
        }
      ],
      "name": "Transfer",
      "type": "event"
    },
    {
      "inputs": [
        {
          "internalType": "address",
          "name": "to",
          "type": "address"
        },
        {
          "internalType": "uint256",
          "name": "tokenId",
          "type": "uint256"
        }
      ],
      "name": "approve",
      "outputs": [],
      "stateMutability": "nonpayable",
      "type": "function"
    },
    {
      "inputs": [
        {
          "internalType": "address",
          "name": "owner",
          "type": "address"
        }
      ],
      "name": "balanceOf",
      "outputs": [
        {
          "internalType": "uint256",
          "name": "",
          "type": "uint256"
        }
      ],
      "stateMutability": "view",
      "type": "function"
    },
    {
      "inputs": [
        {
          "internalType": "uint256",
          "name": "tokenId",
          "type": "uint256"
        }
      ],
      "name": "getApproved",
      "outputs": [
        {
          "internalType": "address",
          "name": "",
          "type": "address"
        }
      ],
      "stateMutability": "view",
      "type": "function"
    },
    {
      "inputs": [
        {
          "internalType": "address",
          "name": "owner",
          "type": "address"
        },
        {
          "internalType": "address",
          "name": "operator",
          "type": "address"
        }
      ],
      "name": "isApprovedForAll",
      "outputs": [
        {
          "internalType": "bool",
          "name": "",
          "type": "bool"
        }
      ],
      "stateMutability": "view",
      "type": "function"
    },
    {
      "inputs": [],
      "name": "makeAnEpicNFT",
      "outputs": [],
      "stateMutability": "nonpayable",
      "type": "function"
    },
    {
      "inputs": [],
      "name": "name",
      "outputs": [
        {
          "internalType": "string",
          "name": "",
          "type": "string"
        }
      ],
      "stateMutability": "view",
      "type": "function"
    },
    {
      "inputs": [
        {
          "internalType": "uint256",
          "name": "tokenId",
          "type": "uint256"
        }
      ],
      "name": "ownerOf",
      "outputs": [
        {
          "internalType": "address",
          "name": "",
          "type": "address"
        }
      ],
      "stateMutability": "view",
      "type": "function"
    },
    {
      "inputs": [
        {
          "internalType": "uint256",
          "name": "tokenId",
          "type": "uint256"
        }
      ],
      "name": "pickRandomFirstWord",
      "outputs": [
        {
          "internalType": "string",
          "name": "",
          "type": "string"
        }
      ],
      "stateMutability": "view",
      "type": "function"
    },
    {
      "inputs": [
        {
          "internalType": "uint256",
          "name": "tokenId",
          "type": "uint256"
        }
      ],
      "name": "pickRandomSecondWord",
      "outputs": [
        {
          "internalType": "string",
          "name": "",
          "type": "string"
        }
      ],
      "stateMutability": "view",
      "type": "function"
    },
    {
      "inputs": [
        {
          "internalType": "address",
          "name": "from",
          "type": "address"
        },
        {
          "internalType": "address",
          "name": "to",
          "type": "address"
        },
        {
          "internalType": "uint256",
          "name": "tokenId",
          "type": "uint256"
        }
      ],
      "name": "safeTransferFrom",
      "outputs": [],
      "stateMutability": "nonpayable",
      "type": "function"
    },
    {
      "inputs": [
        {
          "internalType": "address",
          "name": "from",
          "type": "address"
        },
        {
          "internalType": "address",
          "name": "to",
          "type": "address"
        },
        {
          "internalType": "uint256",
          "name": "tokenId",
          "type": "uint256"
        },
        {
          "internalType": "bytes",
          "name": "_data",
          "type": "bytes"
        }
      ],
      "name": "safeTransferFrom",
      "outputs": [],
      "stateMutability": "nonpayable",
      "type": "function"
    },
    {
      "inputs": [
        {
          "internalType": "address",
          "name": "operator",
          "type": "address"
        },
        {
          "internalType": "bool",
          "name": "approved",
          "type": "bool"
        }
      ],
      "name": "setApprovalForAll",
      "outputs": [],
      "stateMutability": "nonpayable",
      "type": "function"
    },
    {
      "inputs": [
        {
          "internalType": "bytes4",
          "name": "interfaceId",
          "type": "bytes4"
        }
      ],
      "name": "supportsInterface",
      "outputs": [
        {
          "internalType": "bool",
          "name": "",
          "type": "bool"
        }
      ],
      "stateMutability": "view",
      "type": "function"
    },
    {
      "inputs": [],
      "name": "symbol",
      "outputs": [
        {
          "internalType": "string",
          "name": "",
          "type": "string"
        }
      ],
      "stateMutability": "view",
      "type": "function"
    },
    {
      "inputs": [
        {
          "internalType": "uint256",
          "name": "tokenId",
          "type": "uint256"
        }
      ],
      "name": "tokenURI",
      "outputs": [
        {
          "internalType": "string",
          "name": "",
          "type": "string"
        }
      ],
      "stateMutability": "view",
      "type": "function"
    },
    {
      "inputs": [
        {
          "internalType": "address",
          "name": "from",
          "type": "address"
        },
        {
          "internalType": "address",
          "name": "to",
          "type": "address"
        },
        {
          "internalType": "uint256",
          "name": "tokenId",
          "type": "uint256"
        }
      ],
      "name": "transferFrom",
      "outputs": [],
      "stateMutability": "nonpayable",
      "type": "function"
    }
  ],
  "bytecode": "0x608060405260405180610160016040528061012f815260200162003ef961012f91396008908051906020019062000038929190620003d9565b5060405180608001604052806040518060400160405280600581526020017f416e67727900000000000000000000000000000000000000000000000000000081525081526020016040518060400160405280600481526020017f4c617a790000000000000000000000000000000000000000000000000000000081525081526020016040518060400160405280600681526020017f46616d6f7573000000000000000000000000000000000000000000000000000081525081526020016040518060400160405280600881526020017f466561726c6573730000000000000000000000000000000000000000000000008152508152506009906004620001409291906200046a565b5060405180606001604052806040518060400160405280600781526020017f54616e6a69726f0000000000000000000000000000000000000000000000000081525081526020016040518060400160405280600781526020017f496e6f73756b650000000000000000000000000000000000000000000000000081525081526020016040518060400160405280600781526020017f5a656e6974737500000000000000000000000000000000000000000000000000815250815250600a9060036200020d929190620004d1565b503480156200021b57600080fd5b506040518060400160405280600b81526020017f44656d6f6e536c617965720000000000000000000000000000000000000000008152506040518060400160405280600281526020017f44530000000000000000000000000000000000000000000000000000000000008152508160009080519060200190620002a0929190620003d9565b508060019080519060200190620002b9929190620003d9565b505050620003076040518060400160405280601c81526020017f45706963204e667420636f6e74726163742063726561746564203a29000000008152506200030d60201b620010a61760201c565b620006f2565b620003ad8160405160240162000324919062000606565b6040516020818303038152906040527f41304fac000000000000000000000000000000000000000000000000000000007bffffffffffffffffffffffffffffffffffffffffffffffffffffffff19166020820180517bffffffffffffffffffffffffffffffffffffffffffffffffffffffff8381831617835250505050620003b060201b60201c565b50565b60008151905060006a636f6e736f6c652e6c6f679050602083016000808483855afa5050505050565b828054620003e7906200067c565b90600052602060002090601f0160209004810192826200040b576000855562000457565b82601f106200042657805160ff191683800117855562000457565b8280016001018555821562000457579182015b828111156200045657825182559160200191906001019062000439565b5b50905062000466919062000538565b5090565b828054828255906000526020600020908101928215620004be579160200282015b82811115620004bd578251829080519060200190620004ac929190620003d9565b50916020019190600101906200048b565b5b509050620004cd919062000557565b5090565b82805482825590600052602060002090810192821562000525579160200282015b828111156200052457825182908051906020019062000513929190620003d9565b5091602001919060010190620004f2565b5b50905062000534919062000557565b5090565b5b808211156200055357600081600090555060010162000539565b5090565b5b808211156200057b57600081816200057191906200057f565b5060010162000558565b5090565b5080546200058d906200067c565b6000825580601f10620005a15750620005c2565b601f016020900490600052602060002090810190620005c1919062000538565b5b50565b6000620005d2826200062a565b620005de818562000635565b9350620005f081856020860162000646565b620005fb81620006e1565b840191505092915050565b60006020820190508181036000830152620006228184620005c5565b905092915050565b600081519050919050565b600082825260208201905092915050565b60005b838110156200066657808201518184015260208101905062000649565b8381111562000676576000848401525b50505050565b600060028204905060018216806200069557607f821691505b60208210811415620006ac57620006ab620006b2565b5b50919050565b7f4e487b7100000000000000000000000000000000000000000000000000000000600052602260045260246000fd5b6000601f19601f8301169050919050565b6137f780620007026000396000f3fe608060405234801561001057600080fd5b50600436106101005760003560e01c806370a0823111610097578063b88d4fde11610066578063b88d4fde146102d1578063c87b56dd146102ed578063de9d132f1461031d578063e985e9c51461032757610100565b806370a082311461023757806395d89b4114610267578063a22cb46514610285578063b187301f146102a157610100565b806323b872dd116100d357806323b872dd1461019f5780632de38d68146101bb57806342842e0e146101eb5780636352211e1461020757610100565b806301ffc9a71461010557806306fdde0314610135578063081812fc14610153578063095ea7b314610183575b600080fd5b61011f600480360381019061011a9190612339565b610357565b60405161012c91906129e9565b60405180910390f35b61013d610439565b60405161014a9190612a04565b60405180910390f35b61016d6004803603810190610168919061238b565b6104cb565b60405161017a9190612982565b60405180910390f35b61019d600480360381019061019891906122fd565b610550565b005b6101b960048036038101906101b491906121f7565b610668565b005b6101d560048036038101906101d0919061238b565b6106c8565b6040516101e29190612a04565b60405180910390f35b610205600480360381019061020091906121f7565b6107e6565b005b610221600480360381019061021c919061238b565b610806565b60405161022e9190612982565b60405180910390f35b610251600480360381019061024c9190612192565b6108b8565b60405161025e9190612c64565b60405180910390f35b61026f610970565b60405161027c9190612a04565b60405180910390f35b61029f600480360381019061029a91906122c1565b610a02565b005b6102bb60048036038101906102b6919061238b565b610b83565b6040516102c89190612a04565b60405180910390f35b6102eb60048036038101906102e69190612246565b610ca1565b005b6103076004803603810190610302919061238b565b610d03565b6040516103149190612a04565b60405180910390f35b610325610e55565b005b610341600480360381019061033c91906121bb565b611012565b60405161034e91906129e9565b60405180910390f35b60007f80ac58cd000000000000000000000000000000000000000000000000000000007bffffffffffffffffffffffffffffffffffffffffffffffffffffffff1916827bffffffffffffffffffffffffffffffffffffffffffffffffffffffff1916148061042257507f5b5e139f000000000000000000000000000000000000000000000000000000007bffffffffffffffffffffffffffffffffffffffffffffffffffffffff1916827bffffffffffffffffffffffffffffffffffffffffffffffffffffffff1916145b8061043257506104318261113f565b5b9050919050565b60606000805461044890612ef8565b80601f016020809104026020016040519081016040528092919081815260200182805461047490612ef8565b80156104c15780601f10610496576101008083540402835291602001916104c1565b820191906000526020600020905b8154815290600101906020018083116104a457829003601f168201915b5050505050905090565b60006104d6826111a9565b610515576040517f08c379a000000000000000000000000000000000000000000000000000000000815260040161050c90612bc4565b60405180910390fd5b6004600083815260200190815260200160002060009054906101000a900473ffffffffffffffffffffffffffffffffffffffff169050919050565b600061055b82610806565b90508073ffffffffffffffffffffffffffffffffffffffff168373ffffffffffffffffffffffffffffffffffffffff1614156105cc576040517f08c379a00000000000000000000000000000000000000000000000000000000081526004016105c390612c24565b60405180910390fd5b8073ffffffffffffffffffffffffffffffffffffffff166105eb611215565b73ffffffffffffffffffffffffffffffffffffffff16148061061a575061061981610614611215565b611012565b5b610659576040517f08c379a000000000000000000000000000000000000000000000000000000000815260040161065090612b04565b60405180910390fd5b610663838361121d565b505050565b610679610673611215565b826112d6565b6106b8576040517f08c379a00000000000000000000000000000000000000000000000000000000081526004016106af90612c44565b60405180910390fd5b6106c38383836113b4565b505050565b606060006106fc6106d884611610565b6040516020016106e8919061293e565b6040516020818303038152906040526117bd565b90506009805490508161070f9190612fa4565b90506009818154811061074b577f4e487b7100000000000000000000000000000000000000000000000000000000600052603260045260246000fd5b90600052602060002001805461076090612ef8565b80601f016020809104026020016040519081016040528092919081815260200182805461078c90612ef8565b80156107d95780601f106107ae576101008083540402835291602001916107d9565b820191906000526020600020905b8154815290600101906020018083116107bc57829003601f168201915b5050505050915050919050565b61080183838360405180602001604052806000815250610ca1565b505050565b6000806002600084815260200190815260200160002060009054906101000a900473ffffffffffffffffffffffffffffffffffffffff169050600073ffffffffffffffffffffffffffffffffffffffff168173ffffffffffffffffffffffffffffffffffffffff1614156108af576040517f08c379a00000000000000000000000000000000000000000000000000000000081526004016108a690612b44565b60405180910390fd5b80915050919050565b60008073ffffffffffffffffffffffffffffffffffffffff168273ffffffffffffffffffffffffffffffffffffffff161415610929576040517f08c379a000000000000000000000000000000000000000000000000000000000815260040161092090612b24565b60405180910390fd5b600360008373ffffffffffffffffffffffffffffffffffffffff1673ffffffffffffffffffffffffffffffffffffffff168152602001908152602001600020549050919050565b60606001805461097f90612ef8565b80601f01602080910402602001604051908101604052809291908181526020018280546109ab90612ef8565b80156109f85780601f106109cd576101008083540402835291602001916109f8565b820191906000526020600020905b8154815290600101906020018083116109db57829003601f168201915b5050505050905090565b610a0a611215565b73ffffffffffffffffffffffffffffffffffffffff168273ffffffffffffffffffffffffffffffffffffffff161415610a78576040517f08c379a0000000000000000000000000000000000000000000000000000000008152600401610a6f90612ac4565b60405180910390fd5b8060056000610a85611215565b73ffffffffffffffffffffffffffffffffffffffff1673ffffffffffffffffffffffffffffffffffffffff16815260200190815260200160002060008473ffffffffffffffffffffffffffffffffffffffff1673ffffffffffffffffffffffffffffffffffffffff16815260200190815260200160002060006101000a81548160ff0219169083151502179055508173ffffffffffffffffffffffffffffffffffffffff16610b32611215565b73ffffffffffffffffffffffffffffffffffffffff167f17307eab39ab6107e8899845ad3d59bd9653f200f220920489ca2b5937696c3183604051610b7791906129e9565b60405180910390a35050565b60606000610bb7610b9384611610565b604051602001610ba391906128d7565b6040516020818303038152906040526117bd565b9050600a8054905081610bca9190612fa4565b9050600a8181548110610c06577f4e487b7100000000000000000000000000000000000000000000000000000000600052603260045260246000fd5b906000526020600020018054610c1b90612ef8565b80601f0160208091040260200160405190810160405280929190818152602001828054610c4790612ef8565b8015610c945780601f10610c6957610100808354040283529160200191610c94565b820191906000526020600020905b815481529060010190602001808311610c7757829003601f168201915b5050505050915050919050565b610cb2610cac611215565b836112d6565b610cf1576040517f08c379a0000000000000000000000000000000000000000000000000000000008152600401610ce890612c44565b60405180910390fd5b610cfd848484846117f0565b50505050565b6060610d0e826111a9565b610d4d576040517f08c379a0000000000000000000000000000000000000000000000000000000008152600401610d4490612ba4565b60405180910390fd5b6000600660008481526020019081526020016000208054610d6d90612ef8565b80601f0160208091040260200160405190810160405280929190818152602001828054610d9990612ef8565b8015610de65780601f10610dbb57610100808354040283529160200191610de6565b820191906000526020600020905b815481529060010190602001808311610dc957829003601f168201915b505050505090506000610df761184c565b9050600081511415610e0d578192505050610e50565b600082511115610e42578082604051602001610e2a929190612862565b60405160208183030381529060405292505050610e50565b610e4b84611863565b925050505b919050565b6000610e61600761190a565b90506000610e6e826106c8565b90506000610e7b83610b83565b905060008282604051602001610e92929190612862565b60405160208183030381529060405290506000600882604051602001610eb9929190612886565b60405160208183030381529060405290506000610efe83610ed984611918565b604051602001610eea9291906128f9565b604051602081830303815290604052611918565b9050600081604051602001610f139190612960565b6040516020818303038152906040529050610f626040518060400160405280601581526020017f0a2d2d2d2d2d2d2d2d2d2d2d2d2d2d2d2d2d2d2d2d00000000000000000000008152506110a6565b610f8a81604051602001610f7691906128b5565b6040516020818303038152906040526110a6565b610fc86040518060400160405280601581526020017f2d2d2d2d2d2d2d2d2d2d2d2d2d2d2d2d2d2d2d2d0a00000000000000000000008152506110a6565b610fd23388611ad6565b610fdc8782611af4565b610fff60405180606001604052806025815260200161375d602591398833611b68565b6110096007611c07565b50505050505050565b6000600560008473ffffffffffffffffffffffffffffffffffffffff1673ffffffffffffffffffffffffffffffffffffffff16815260200190815260200160002060008373ffffffffffffffffffffffffffffffffffffffff1673ffffffffffffffffffffffffffffffffffffffff16815260200190815260200160002060009054906101000a900460ff16905092915050565b61113c816040516024016110ba9190612a04565b6040516020818303038152906040527f41304fac000000000000000000000000000000000000000000000000000000007bffffffffffffffffffffffffffffffffffffffffffffffffffffffff19166020820180517bffffffffffffffffffffffffffffffffffffffffffffffffffffffff8381831617835250505050611c1d565b50565b60007f01ffc9a7000000000000000000000000000000000000000000000000000000007bffffffffffffffffffffffffffffffffffffffffffffffffffffffff1916827bffffffffffffffffffffffffffffffffffffffffffffffffffffffff1916149050919050565b60008073ffffffffffffffffffffffffffffffffffffffff166002600084815260200190815260200160002060009054906101000a900473ffffffffffffffffffffffffffffffffffffffff1673ffffffffffffffffffffffffffffffffffffffff1614159050919050565b600033905090565b816004600083815260200190815260200160002060006101000a81548173ffffffffffffffffffffffffffffffffffffffff021916908373ffffffffffffffffffffffffffffffffffffffff160217905550808273ffffffffffffffffffffffffffffffffffffffff1661129083610806565b73ffffffffffffffffffffffffffffffffffffffff167f8c5be1e5ebec7d5bd14f71427d1e84f3dd0314c0f7b2291e5b200ac8c7c3b92560405160405180910390a45050565b60006112e1826111a9565b611320576040517f08c379a000000000000000000000000000000000000000000000000000000000815260040161131790612ae4565b60405180910390fd5b600061132b83610806565b90508073ffffffffffffffffffffffffffffffffffffffff168473ffffffffffffffffffffffffffffffffffffffff16148061139a57508373ffffffffffffffffffffffffffffffffffffffff16611382846104cb565b73ffffffffffffffffffffffffffffffffffffffff16145b806113ab57506113aa8185611012565b5b91505092915050565b8273ffffffffffffffffffffffffffffffffffffffff166113d482610806565b73ffffffffffffffffffffffffffffffffffffffff161461142a576040517f08c379a000000000000000000000000000000000000000000000000000000000815260040161142190612be4565b60405180910390fd5b600073ffffffffffffffffffffffffffffffffffffffff168273ffffffffffffffffffffffffffffffffffffffff16141561149a576040517f08c379a000000000000000000000000000000000000000000000000000000000815260040161149190612aa4565b60405180910390fd5b6114a5838383611c46565b6114b060008261121d565b6001600360008573ffffffffffffffffffffffffffffffffffffffff1673ffffffffffffffffffffffffffffffffffffffff16815260200190815260200160002060008282546115009190612e0e565b925050819055506001600360008473ffffffffffffffffffffffffffffffffffffffff1673ffffffffffffffffffffffffffffffffffffffff16815260200190815260200160002060008282546115579190612d2d565b92505081905550816002600083815260200190815260200160002060006101000a81548173ffffffffffffffffffffffffffffffffffffffff021916908373ffffffffffffffffffffffffffffffffffffffff160217905550808273ffffffffffffffffffffffffffffffffffffffff168473ffffffffffffffffffffffffffffffffffffffff167fddf252ad1be2c89b69c2b068fc378daa952ba7f163c4a11628f55a4df523b3ef60405160405180910390a4505050565b60606000821415611658576040518060400160405280600181526020017f300000000000000000000000000000000000000000000000000000000000000081525090506117b8565b600082905060005b6000821461168a57808061167390612f5b565b915050600a826116839190612d83565b9150611660565b60008167ffffffffffffffff8111156116cc577f4e487b7100000000000000000000000000000000000000000000000000000000600052604160045260246000fd5b6040519080825280601f01601f1916602001820160405280156116fe5781602001600182028036833780820191505090505b5090505b600085146117b1576001826117179190612e0e565b9150600a856117269190612fa4565b60306117329190612d2d565b60f81b81838151811061176e577f4e487b7100000000000000000000000000000000000000000000000000000000600052603260045260246000fd5b60200101907effffffffffffffffffffffffffffffffffffffffffffffffffffffffffffff1916908160001a905350600a856117aa9190612d83565b9450611702565b8093505050505b919050565b6000816040516020016117d0919061284b565b6040516020818303038152906040528051906020012060001c9050919050565b6117fb8484846113b4565b61180784848484611c4b565b611846576040517f08c379a000000000000000000000000000000000000000000000000000000000815260040161183d90612a64565b60405180910390fd5b50505050565b606060405180602001604052806000815250905090565b606061186e826111a9565b6118ad576040517f08c379a00000000000000000000000000000000000000000000000000000000081526004016118a490612c04565b60405180910390fd5b60006118b761184c565b905060008151116118d75760405180602001604052806000815250611902565b806118e184611610565b6040516020016118f2929190612862565b6040516020818303038152906040525b915050919050565b600081600001549050919050565b606060008251905060008114156119415760405180602001604052806000815250915050611ad1565b600060036002836119529190612d2d565b61195c9190612d83565b60046119689190612db4565b905060006020826119799190612d2d565b67ffffffffffffffff8111156119b8577f4e487b7100000000000000000000000000000000000000000000000000000000600052604160045260246000fd5b6040519080825280601f01601f1916602001820160405280156119ea5781602001600182028036833780820191505090505b5090506000604051806060016040528060408152602001613782604091399050600181016020830160005b86811015611a8e5760038101905062ffffff818a015116603f8160121c168401518060081b905060ff603f83600c1c1686015116810190508060081b905060ff603f8360061c1686015116810190508060081b905060ff603f831686015116810190508060e01b90508084526004840193505050611a15565b506003860660018114611aa85760028114611ab857611ac3565b613d3d60f01b6002830352611ac3565b603d60f81b60018303525b508484525050819450505050505b919050565b611af0828260405180602001604052806000815250611de2565b5050565b611afd826111a9565b611b3c576040517f08c379a0000000000000000000000000000000000000000000000000000000008152600401611b3390612b64565b60405180910390fd5b80600660008481526020019081526020016000209080519060200190611b6392919061201e565b505050565b611c02838383604051602401611b8093929190612a26565b6040516020818303038152906040527fe3849f79000000000000000000000000000000000000000000000000000000007bffffffffffffffffffffffffffffffffffffffffffffffffffffffff19166020820180517bffffffffffffffffffffffffffffffffffffffffffffffffffffffff8381831617835250505050611c1d565b505050565b6001816000016000828254019250508190555050565b60008151905060006a636f6e736f6c652e6c6f679050602083016000808483855afa5050505050565b505050565b6000611c6c8473ffffffffffffffffffffffffffffffffffffffff16611e3d565b15611dd5578373ffffffffffffffffffffffffffffffffffffffff1663150b7a02611c95611215565b8786866040518563ffffffff1660e01b8152600401611cb7949392919061299d565b602060405180830381600087803b158015611cd157600080fd5b505af1925050508015611d0257506040513d601f19601f82011682018060405250810190611cff9190612362565b60015b611d85573d8060008114611d32576040519150601f19603f3d011682016040523d82523d6000602084013e611d37565b606091505b50600081511415611d7d576040517f08c379a0000000000000000000000000000000000000000000000000000000008152600401611d7490612a64565b60405180910390fd5b805181602001fd5b63150b7a0260e01b7bffffffffffffffffffffffffffffffffffffffffffffffffffffffff1916817bffffffffffffffffffffffffffffffffffffffffffffffffffffffff191614915050611dda565b600190505b949350505050565b611dec8383611e50565b611df96000848484611c4b565b611e38576040517f08c379a0000000000000000000000000000000000000000000000000000000008152600401611e2f90612a64565b60405180910390fd5b505050565b600080823b905060008111915050919050565b600073ffffffffffffffffffffffffffffffffffffffff168273ffffffffffffffffffffffffffffffffffffffff161415611ec0576040517f08c379a0000000000000000000000000000000000000000000000000000000008152600401611eb790612b84565b60405180910390fd5b611ec9816111a9565b15611f09576040517f08c379a0000000000000000000000000000000000000000000000000000000008152600401611f0090612a84565b60405180910390fd5b611f1560008383611c46565b6001600360008473ffffffffffffffffffffffffffffffffffffffff1673ffffffffffffffffffffffffffffffffffffffff1681526020019081526020016000206000828254611f659190612d2d565b92505081905550816002600083815260200190815260200160002060006101000a81548173ffffffffffffffffffffffffffffffffffffffff021916908373ffffffffffffffffffffffffffffffffffffffff160217905550808273ffffffffffffffffffffffffffffffffffffffff16600073ffffffffffffffffffffffffffffffffffffffff167fddf252ad1be2c89b69c2b068fc378daa952ba7f163c4a11628f55a4df523b3ef60405160405180910390a45050565b82805461202a90612ef8565b90600052602060002090601f01602090048101928261204c5760008555612093565b82601f1061206557805160ff1916838001178555612093565b82800160010185558215612093579182015b82811115612092578251825591602001919060010190612077565b5b5090506120a091906120a4565b5090565b5b808211156120bd5760008160009055506001016120a5565b5090565b60006120d46120cf84612ca4565b612c7f565b9050828152602081018484840111156120ec57600080fd5b6120f7848285612eb6565b509392505050565b60008135905061210e81613700565b92915050565b60008135905061212381613717565b92915050565b6000813590506121388161372e565b92915050565b60008151905061214d8161372e565b92915050565b600082601f83011261216457600080fd5b81356121748482602086016120c1565b91505092915050565b60008135905061218c81613745565b92915050565b6000602082840312156121a457600080fd5b60006121b2848285016120ff565b91505092915050565b600080604083850312156121ce57600080fd5b60006121dc858286016120ff565b92505060206121ed858286016120ff565b9150509250929050565b60008060006060848603121561220c57600080fd5b600061221a868287016120ff565b935050602061222b868287016120ff565b925050604061223c8682870161217d565b9150509250925092565b6000806000806080858703121561225c57600080fd5b600061226a878288016120ff565b945050602061227b878288016120ff565b935050604061228c8782880161217d565b925050606085013567ffffffffffffffff8111156122a957600080fd5b6122b587828801612153565b91505092959194509250565b600080604083850312156122d457600080fd5b60006122e2858286016120ff565b92505060206122f385828601612114565b9150509250929050565b6000806040838503121561231057600080fd5b600061231e858286016120ff565b925050602061232f8582860161217d565b9150509250929050565b60006020828403121561234b57600080fd5b600061235984828501612129565b91505092915050565b60006020828403121561237457600080fd5b60006123828482850161213e565b91505092915050565b60006020828403121561239d57600080fd5b60006123ab8482850161217d565b91505092915050565b6123bd81612e42565b82525050565b6123cc81612e54565b82525050565b60006123dd82612cea565b6123e78185612d00565b93506123f7818560208601612ec5565b61240081613091565b840191505092915050565b600061241682612cf5565b6124208185612d11565b9350612430818560208601612ec5565b61243981613091565b840191505092915050565b600061244f82612cf5565b6124598185612d22565b9350612469818560208601612ec5565b80840191505092915050565b6000815461248281612ef8565b61248c8186612d22565b945060018216600081146124a757600181146124b8576124eb565b60ff198316865281860193506124eb565b6124c185612cd5565b60005b838110156124e3578154818901526001820191506020810190506124c4565b838801955050505b50505092915050565b6000612501602583612d22565b915061250c826130a2565b602582019050919050565b6000612524603283612d11565b915061252f826130f1565b604082019050919050565b6000612547601c83612d11565b915061255282613140565b602082019050919050565b600061256a602483612d11565b915061257582613169565b604082019050919050565b600061258d601983612d11565b9150612598826131b8565b602082019050919050565b60006125b0600b83612d22565b91506125bb826131e1565b600b82019050919050565b60006125d3602c83612d11565b91506125de8261320a565b604082019050919050565b60006125f6600d83612d22565b915061260182613259565b600d82019050919050565b6000612619603883612d11565b915061262482613282565b604082019050919050565b600061263c602a83612d11565b9150612647826132d1565b604082019050919050565b600061265f602983612d11565b915061266a82613320565b604082019050919050565b6000612682602e83612d11565b915061268d8261336f565b604082019050919050565b60006126a5600283612d22565b91506126b0826133be565b600282019050919050565b60006126c8602083612d11565b91506126d3826133e7565b602082019050919050565b60006126eb603183612d11565b91506126f682613410565b604082019050919050565b600061270e602c83612d11565b91506127198261345f565b604082019050919050565b6000612731602983612d11565b915061273c826134ae565b604082019050919050565b6000612754602f83612d11565b915061275f826134fd565b604082019050919050565b6000612777600a83612d22565b91506127828261354c565b600a82019050919050565b600061279a602183612d11565b91506127a582613575565b604082019050919050565b60006127bd600a83612d22565b91506127c8826135c4565b600a82019050919050565b60006127e0601d83612d22565b91506127eb826135ed565b601d82019050919050565b6000612803607683612d22565b915061280e82613616565b607682019050919050565b6000612826603183612d11565b9150612831826136b1565b604082019050919050565b61284581612eac565b82525050565b60006128578284612444565b915081905092915050565b600061286e8285612444565b915061287a8284612444565b91508190509392505050565b60006128928285612475565b915061289e8284612444565b91506128a9826125e9565b91508190509392505050565b60006128c0826124f4565b91506128cc8284612444565b915081905092915050565b60006128e2826125a3565b91506128ee8284612444565b915081905092915050565b60006129048261276a565b91506129108285612444565b915061291b826127f6565b91506129278284612444565b915061293282612698565b91508190509392505050565b6000612949826127b0565b91506129558284612444565b915081905092915050565b600061296b826127d3565b91506129778284612444565b915081905092915050565b600060208201905061299760008301846123b4565b92915050565b60006080820190506129b260008301876123b4565b6129bf60208301866123b4565b6129cc604083018561283c565b81810360608301526129de81846123d2565b905095945050505050565b60006020820190506129fe60008301846123c3565b92915050565b60006020820190508181036000830152612a1e818461240b565b905092915050565b60006060820190508181036000830152612a40818661240b565b9050612a4f602083018561283c565b612a5c60408301846123b4565b949350505050565b60006020820190508181036000830152612a7d81612517565b9050919050565b60006020820190508181036000830152612a9d8161253a565b9050919050565b60006020820190508181036000830152612abd8161255d565b9050919050565b60006020820190508181036000830152612add81612580565b9050919050565b60006020820190508181036000830152612afd816125c6565b9050919050565b60006020820190508181036000830152612b1d8161260c565b9050919050565b60006020820190508181036000830152612b3d8161262f565b9050919050565b60006020820190508181036000830152612b5d81612652565b9050919050565b60006020820190508181036000830152612b7d81612675565b9050919050565b60006020820190508181036000830152612b9d816126bb565b9050919050565b60006020820190508181036000830152612bbd816126de565b9050919050565b60006020820190508181036000830152612bdd81612701565b9050919050565b60006020820190508181036000830152612bfd81612724565b9050919050565b60006020820190508181036000830152612c1d81612747565b9050919050565b60006020820190508181036000830152612c3d8161278d565b9050919050565b60006020820190508181036000830152612c5d81612819565b9050919050565b6000602082019050612c79600083018461283c565b92915050565b6000612c89612c9a565b9050612c958282612f2a565b919050565b6000604051905090565b600067ffffffffffffffff821115612cbf57612cbe613062565b5b612cc882613091565b9050602081019050919050565b60008190508160005260206000209050919050565b600081519050919050565b600081519050919050565b600082825260208201905092915050565b600082825260208201905092915050565b600081905092915050565b6000612d3882612eac565b9150612d4383612eac565b9250827fffffffffffffffffffffffffffffffffffffffffffffffffffffffffffffffff03821115612d7857612d77612fd5565b5b828201905092915050565b6000612d8e82612eac565b9150612d9983612eac565b925082612da957612da8613004565b5b828204905092915050565b6000612dbf82612eac565b9150612dca83612eac565b9250817fffffffffffffffffffffffffffffffffffffffffffffffffffffffffffffffff0483118215151615612e0357612e02612fd5565b5b828202905092915050565b6000612e1982612eac565b9150612e2483612eac565b925082821015612e3757612e36612fd5565b5b828203905092915050565b6000612e4d82612e8c565b9050919050565b60008115159050919050565b60007fffffffff0000000000000000000000000000000000000000000000000000000082169050919050565b600073ffffffffffffffffffffffffffffffffffffffff82169050919050565b6000819050919050565b82818337600083830152505050565b60005b83811015612ee3578082015181840152602081019050612ec8565b83811115612ef2576000848401525b50505050565b60006002820490506001821680612f1057607f821691505b60208210811415612f2457612f23613033565b5b50919050565b612f3382613091565b810181811067ffffffffffffffff82111715612f5257612f51613062565b5b80604052505050565b6000612f6682612eac565b91507fffffffffffffffffffffffffffffffffffffffffffffffffffffffffffffffff821415612f9957612f98612fd5565b5b600182019050919050565b6000612faf82612eac565b9150612fba83612eac565b925082612fca57612fc9613004565b5b828206905092915050565b7f4e487b7100000000000000000000000000000000000000000000000000000000600052601160045260246000fd5b7f4e487b7100000000000000000000000000000000000000000000000000000000600052601260045260246000fd5b7f4e487b7100000000000000000000000000000000000000000000000000000000600052602260045260246000fd5b7f4e487b7100000000000000000000000000000000000000000000000000000000600052604160045260246000fd5b6000601f19601f8301169050919050565b7f68747470733a2f2f6e6674707265766965772e30786465762e636f6465732f3f60008201527f636f64653d000000000000000000000000000000000000000000000000000000602082015250565b7f4552433732313a207472616e7366657220746f206e6f6e20455243373231526560008201527f63656976657220696d706c656d656e7465720000000000000000000000000000602082015250565b7f4552433732313a20746f6b656e20616c7265616479206d696e74656400000000600082015250565b7f4552433732313a207472616e7366657220746f20746865207a65726f2061646460008201527f7265737300000000000000000000000000000000000000000000000000000000602082015250565b7f4552433732313a20617070726f766520746f2063616c6c657200000000000000600082015250565b7f5345434f4e445f574f5244000000000000000000000000000000000000000000600082015250565b7f4552433732313a206f70657261746f7220717565727920666f72206e6f6e657860008201527f697374656e7420746f6b656e0000000000000000000000000000000000000000602082015250565b7f3c2f746578743e3c2f7376673e00000000000000000000000000000000000000600082015250565b7f4552433732313a20617070726f76652063616c6c6572206973206e6f74206f7760008201527f6e6572206e6f7220617070726f76656420666f7220616c6c0000000000000000602082015250565b7f4552433732313a2062616c616e636520717565727920666f7220746865207a6560008201527f726f206164647265737300000000000000000000000000000000000000000000602082015250565b7f4552433732313a206f776e657220717565727920666f72206e6f6e657869737460008201527f656e7420746f6b656e0000000000000000000000000000000000000000000000602082015250565b7f45524337323155524953746f726167653a2055524920736574206f66206e6f6e60008201527f6578697374656e7420746f6b656e000000000000000000000000000000000000602082015250565b7f227d000000000000000000000000000000000000000000000000000000000000600082015250565b7f4552433732313a206d696e7420746f20746865207a65726f2061646472657373600082015250565b7f45524337323155524953746f726167653a2055524920717565727920666f722060008201527f6e6f6e6578697374656e7420746f6b656e000000000000000000000000000000602082015250565b7f4552433732313a20617070726f76656420717565727920666f72206e6f6e657860008201527f697374656e7420746f6b656e0000000000000000000000000000000000000000602082015250565b7f4552433732313a207472616e73666572206f6620746f6b656e2074686174206960008201527f73206e6f74206f776e0000000000000000000000000000000000000000000000602082015250565b7f4552433732314d657461646174613a2055524920717565727920666f72206e6f60008201527f6e6578697374656e7420746f6b656e0000000000000000000000000000000000602082015250565b7f7b226e616d65223a202200000000000000000000000000000000000000000000600082015250565b7f4552433732313a20617070726f76616c20746f2063757272656e74206f776e6560008201527f7200000000000000000000000000000000000000000000000000000000000000602082015250565b7f46495253545f574f524400000000000000000000000000000000000000000000600082015250565b7f646174613a6170706c69636174696f6e2f6a736f6e3b6261736536342c000000600082015250565b7f222c20226465736372697074696f6e223a202244656d6f6e20736c617965722060008201527f636f6c6c656374696f6e2062792062696771202874687820746f206275696c6460208201527f73706163652070726f6a656374292e222c2022696d616765223a20226461746160408201527f3a696d6167652f7376672b786d6c3b6261736536342c00000000000000000000606082015250565b7f4552433732313a207472616e736665722063616c6c6572206973206e6f74206f60008201527f776e6572206e6f7220617070726f766564000000000000000000000000000000602082015250565b61370981612e42565b811461371457600080fd5b50565b61372081612e54565b811461372b57600080fd5b50565b61373781612e60565b811461374257600080fd5b50565b61374e81612eac565b811461375957600080fd5b5056fe416e204e465420772f20494420257320686173206265656e206d696e74656420746f2025734142434445464748494a4b4c4d4e4f505152535455565758595a6162636465666768696a6b6c6d6e6f707172737475767778797a303132333435363738392b2fa2646970667358221220f472fcdb53382ce272f08f3e90e8741ecea9e7e6fb92682ab84c45b6532f328564736f6c634300080400333c73766720786d6c6e733d27687474703a2f2f7777772e77332e6f72672f323030302f73766727207072657365727665417370656374526174696f3d27784d696e594d696e206d656574272076696577426f783d273020302033353020333530273e3c7374796c653e2e62617365207b2066696c6c3a2077686974653b20666f6e742d66616d696c793a2073657269663b20666f6e742d73697a653a20323470783b207d3c2f7374796c653e3c726563742077696474683d273130302527206865696768743d2731303025272066696c6c3d27626c61636b27202f3e3c7465787420783d273530252720793d273530252720636c6173733d27626173652720646f6d696e616e742d626173656c696e653d276d6964646c652720746578742d616e63686f723d276d6964646c65273e",
  "linkReferences": {},
  "deployedLinkReferences": {}
}