{
  "_format": "hh-sol-artifact-1",
  "contractName": "EpicNft",
  "sourceName": "contracts/EpicNft.sol",
  "abi": [
    {
      "inputs": [],
      "stateMutability": "nonpayable",
      "type": "constructor"
    },
    {
      "anonymous": false,
      "inputs": [
        {
          "indexed": true,
          "internalType": "address",
          "name": "owner",
          "type": "address"
        },
        {
          "indexed": true,
          "internalType": "address",
          "name": "approved",
          "type": "address"
        },
        {
          "indexed": true,
          "internalType": "uint256",
          "name": "tokenId",
          "type": "uint256"
        }
      ],
      "name": "Approval",
      "type": "event"
    },
    {
      "anonymous": false,
      "inputs": [
        {
          "indexed": true,
          "internalType": "address",
          "name": "owner",
          "type": "address"
        },
        {
          "indexed": true,
          "internalType": "address",
          "name": "operator",
          "type": "address"
        },
        {
          "indexed": false,
          "internalType": "bool",
          "name": "approved",
          "type": "bool"
        }
      ],
      "name": "ApprovalForAll",
      "type": "event"
    },
    {
      "anonymous": false,
      "inputs": [
        {
          "indexed": false,
          "internalType": "address",
          "name": "sender",
          "type": "address"
        },
        {
          "indexed": false,
          "internalType": "uint256",
          "name": "tokenId",
          "type": "uint256"
        }
      ],
      "name": "NewEpicNFTMinted",
      "type": "event"
    },
    {
      "anonymous": false,
      "inputs": [
        {
          "indexed": true,
          "internalType": "address",
          "name": "from",
          "type": "address"
        },
        {
          "indexed": true,
          "internalType": "address",
          "name": "to",
          "type": "address"
        },
        {
          "indexed": true,
          "internalType": "uint256",
          "name": "tokenId",
          "type": "uint256"
        }
      ],
      "name": "Transfer",
      "type": "event"
    },
    {
      "inputs": [
        {
          "internalType": "address",
          "name": "to",
          "type": "address"
        },
        {
          "internalType": "uint256",
          "name": "tokenId",
          "type": "uint256"
        }
      ],
      "name": "approve",
      "outputs": [],
      "stateMutability": "nonpayable",
      "type": "function"
    },
    {
      "inputs": [
        {
          "internalType": "address",
          "name": "owner",
          "type": "address"
        }
      ],
      "name": "balanceOf",
      "outputs": [
        {
          "internalType": "uint256",
          "name": "",
          "type": "uint256"
        }
      ],
      "stateMutability": "view",
      "type": "function"
    },
    {
      "inputs": [
        {
          "internalType": "uint256",
          "name": "tokenId",
          "type": "uint256"
        }
      ],
      "name": "getApproved",
      "outputs": [
        {
          "internalType": "address",
          "name": "",
          "type": "address"
        }
      ],
      "stateMutability": "view",
      "type": "function"
    },
    {
      "inputs": [
        {
          "internalType": "address",
          "name": "owner",
          "type": "address"
        },
        {
          "internalType": "address",
          "name": "operator",
          "type": "address"
        }
      ],
      "name": "isApprovedForAll",
      "outputs": [
        {
          "internalType": "bool",
          "name": "",
          "type": "bool"
        }
      ],
      "stateMutability": "view",
      "type": "function"
    },
    {
      "inputs": [],
      "name": "makeAnEpicNFT",
      "outputs": [],
      "stateMutability": "nonpayable",
      "type": "function"
    },
    {
      "inputs": [],
      "name": "name",
      "outputs": [
        {
          "internalType": "string",
          "name": "",
          "type": "string"
        }
      ],
      "stateMutability": "view",
      "type": "function"
    },
    {
      "inputs": [
        {
          "internalType": "uint256",
          "name": "tokenId",
          "type": "uint256"
        }
      ],
      "name": "ownerOf",
      "outputs": [
        {
          "internalType": "address",
          "name": "",
          "type": "address"
        }
      ],
      "stateMutability": "view",
      "type": "function"
    },
    {
      "inputs": [
        {
          "internalType": "uint256",
          "name": "tokenId",
          "type": "uint256"
        }
      ],
      "name": "pickRandomFirstWord",
      "outputs": [
        {
          "internalType": "string",
          "name": "",
          "type": "string"
        }
      ],
      "stateMutability": "view",
      "type": "function"
    },
    {
      "inputs": [
        {
          "internalType": "uint256",
          "name": "tokenId",
          "type": "uint256"
        }
      ],
      "name": "pickRandomSecondWord",
      "outputs": [
        {
          "internalType": "string",
          "name": "",
          "type": "string"
        }
      ],
      "stateMutability": "view",
      "type": "function"
    },
    {
      "inputs": [
        {
          "internalType": "address",
          "name": "from",
          "type": "address"
        },
        {
          "internalType": "address",
          "name": "to",
          "type": "address"
        },
        {
          "internalType": "uint256",
          "name": "tokenId",
          "type": "uint256"
        }
      ],
      "name": "safeTransferFrom",
      "outputs": [],
      "stateMutability": "nonpayable",
      "type": "function"
    },
    {
      "inputs": [
        {
          "internalType": "address",
          "name": "from",
          "type": "address"
        },
        {
          "internalType": "address",
          "name": "to",
          "type": "address"
        },
        {
          "internalType": "uint256",
          "name": "tokenId",
          "type": "uint256"
        },
        {
          "internalType": "bytes",
          "name": "_data",
          "type": "bytes"
        }
      ],
      "name": "safeTransferFrom",
      "outputs": [],
      "stateMutability": "nonpayable",
      "type": "function"
    },
    {
      "inputs": [
        {
          "internalType": "address",
          "name": "operator",
          "type": "address"
        },
        {
          "internalType": "bool",
          "name": "approved",
          "type": "bool"
        }
      ],
      "name": "setApprovalForAll",
      "outputs": [],
      "stateMutability": "nonpayable",
      "type": "function"
    },
    {
      "inputs": [
        {
          "internalType": "bytes4",
          "name": "interfaceId",
          "type": "bytes4"
        }
      ],
      "name": "supportsInterface",
      "outputs": [
        {
          "internalType": "bool",
          "name": "",
          "type": "bool"
        }
      ],
      "stateMutability": "view",
      "type": "function"
    },
    {
      "inputs": [],
      "name": "symbol",
      "outputs": [
        {
          "internalType": "string",
          "name": "",
          "type": "string"
        }
      ],
      "stateMutability": "view",
      "type": "function"
    },
    {
      "inputs": [
        {
          "internalType": "uint256",
          "name": "tokenId",
          "type": "uint256"
        }
      ],
      "name": "tokenURI",
      "outputs": [
        {
          "internalType": "string",
          "name": "",
          "type": "string"
        }
      ],
      "stateMutability": "view",
      "type": "function"
    },
    {
      "inputs": [
        {
          "internalType": "address",
          "name": "from",
          "type": "address"
        },
        {
          "internalType": "address",
          "name": "to",
          "type": "address"
        },
        {
          "internalType": "uint256",
          "name": "tokenId",
          "type": "uint256"
        }
      ],
      "name": "transferFrom",
      "outputs": [],
      "stateMutability": "nonpayable",
      "type": "function"
    }
  ],
  "bytecode": "0x608060405260405180610160016040528061012f815260200162003f5b61012f91396008908051906020019062000038929190620003d9565b5060405180608001604052806040518060400160405280600581526020017f416e67727900000000000000000000000000000000000000000000000000000081525081526020016040518060400160405280600481526020017f4c617a790000000000000000000000000000000000000000000000000000000081525081526020016040518060400160405280600681526020017f46616d6f7573000000000000000000000000000000000000000000000000000081525081526020016040518060400160405280600881526020017f466561726c6573730000000000000000000000000000000000000000000000008152508152506009906004620001409291906200046a565b5060405180606001604052806040518060400160405280600781526020017f54616e6a69726f0000000000000000000000000000000000000000000000000081525081526020016040518060400160405280600781526020017f496e6f73756b650000000000000000000000000000000000000000000000000081525081526020016040518060400160405280600781526020017f5a656e6974737500000000000000000000000000000000000000000000000000815250815250600a9060036200020d929190620004d1565b503480156200021b57600080fd5b506040518060400160405280600b81526020017f44656d6f6e536c617965720000000000000000000000000000000000000000008152506040518060400160405280600281526020017f44530000000000000000000000000000000000000000000000000000000000008152508160009080519060200190620002a0929190620003d9565b508060019080519060200190620002b9929190620003d9565b505050620003076040518060400160405280601c81526020017f45706963204e667420636f6e74726163742063726561746564203a29000000008152506200030d60201b620010df1760201c565b620006f2565b620003ad8160405160240162000324919062000606565b6040516020818303038152906040527f41304fac000000000000000000000000000000000000000000000000000000007bffffffffffffffffffffffffffffffffffffffffffffffffffffffff19166020820180517bffffffffffffffffffffffffffffffffffffffffffffffffffffffff8381831617835250505050620003b060201b60201c565b50565b60008151905060006a636f6e736f6c652e6c6f679050602083016000808483855afa5050505050565b828054620003e7906200067c565b90600052602060002090601f0160209004810192826200040b576000855562000457565b82601f106200042657805160ff191683800117855562000457565b8280016001018555821562000457579182015b828111156200045657825182559160200191906001019062000439565b5b50905062000466919062000538565b5090565b828054828255906000526020600020908101928215620004be579160200282015b82811115620004bd578251829080519060200190620004ac929190620003d9565b50916020019190600101906200048b565b5b509050620004cd919062000557565b5090565b82805482825590600052602060002090810192821562000525579160200282015b828111156200052457825182908051906020019062000513929190620003d9565b5091602001919060010190620004f2565b5b50905062000534919062000557565b5090565b5b808211156200055357600081600090555060010162000539565b5090565b5b808211156200057b57600081816200057191906200057f565b5060010162000558565b5090565b5080546200058d906200067c565b6000825580601f10620005a15750620005c2565b601f016020900490600052602060002090810190620005c1919062000538565b5b50565b6000620005d2826200062a565b620005de818562000635565b9350620005f081856020860162000646565b620005fb81620006e1565b840191505092915050565b60006020820190508181036000830152620006228184620005c5565b905092915050565b600081519050919050565b600082825260208201905092915050565b60005b838110156200066657808201518184015260208101905062000649565b8381111562000676576000848401525b50505050565b600060028204905060018216806200069557607f821691505b60208210811415620006ac57620006ab620006b2565b5b50919050565b7f4e487b7100000000000000000000000000000000000000000000000000000000600052602260045260246000fd5b6000601f19601f8301169050919050565b61385980620007026000396000f3fe608060405234801561001057600080fd5b50600436106101005760003560e01c806370a0823111610097578063b88d4fde11610066578063b88d4fde146102d1578063c87b56dd146102ed578063de9d132f1461031d578063e985e9c51461032757610100565b806370a082311461023757806395d89b4114610267578063a22cb46514610285578063b187301f146102a157610100565b806323b872dd116100d357806323b872dd1461019f5780632de38d68146101bb57806342842e0e146101eb5780636352211e1461020757610100565b806301ffc9a71461010557806306fdde0314610135578063081812fc14610153578063095ea7b314610183575b600080fd5b61011f600480360381019061011a9190612372565b610357565b60405161012c9190612a4b565b60405180910390f35b61013d610439565b60405161014a9190612a66565b60405180910390f35b61016d600480360381019061016891906123c4565b6104cb565b60405161017a91906129bb565b60405180910390f35b61019d60048036038101906101989190612336565b610550565b005b6101b960048036038101906101b49190612230565b610668565b005b6101d560048036038101906101d091906123c4565b6106c8565b6040516101e29190612a66565b60405180910390f35b61020560048036038101906102009190612230565b6107e6565b005b610221600480360381019061021c91906123c4565b610806565b60405161022e91906129bb565b60405180910390f35b610251600480360381019061024c91906121cb565b6108b8565b60405161025e9190612cc6565b60405180910390f35b61026f610970565b60405161027c9190612a66565b60405180910390f35b61029f600480360381019061029a91906122fa565b610a02565b005b6102bb60048036038101906102b691906123c4565b610b83565b6040516102c89190612a66565b60405180910390f35b6102eb60048036038101906102e6919061227f565b610ca1565b005b610307600480360381019061030291906123c4565b610d03565b6040516103149190612a66565b60405180910390f35b610325610e55565b005b610341600480360381019061033c91906121f4565b61104b565b60405161034e9190612a4b565b60405180910390f35b60007f80ac58cd000000000000000000000000000000000000000000000000000000007bffffffffffffffffffffffffffffffffffffffffffffffffffffffff1916827bffffffffffffffffffffffffffffffffffffffffffffffffffffffff1916148061042257507f5b5e139f000000000000000000000000000000000000000000000000000000007bffffffffffffffffffffffffffffffffffffffffffffffffffffffff1916827bffffffffffffffffffffffffffffffffffffffffffffffffffffffff1916145b80610432575061043182611178565b5b9050919050565b60606000805461044890612f5a565b80601f016020809104026020016040519081016040528092919081815260200182805461047490612f5a565b80156104c15780601f10610496576101008083540402835291602001916104c1565b820191906000526020600020905b8154815290600101906020018083116104a457829003601f168201915b5050505050905090565b60006104d6826111e2565b610515576040517f08c379a000000000000000000000000000000000000000000000000000000000815260040161050c90612c26565b60405180910390fd5b6004600083815260200190815260200160002060009054906101000a900473ffffffffffffffffffffffffffffffffffffffff169050919050565b600061055b82610806565b90508073ffffffffffffffffffffffffffffffffffffffff168373ffffffffffffffffffffffffffffffffffffffff1614156105cc576040517f08c379a00000000000000000000000000000000000000000000000000000000081526004016105c390612c86565b60405180910390fd5b8073ffffffffffffffffffffffffffffffffffffffff166105eb61124e565b73ffffffffffffffffffffffffffffffffffffffff16148061061a57506106198161061461124e565b61104b565b5b610659576040517f08c379a000000000000000000000000000000000000000000000000000000000815260040161065090612b66565b60405180910390fd5b6106638383611256565b505050565b61067961067361124e565b8261130f565b6106b8576040517f08c379a00000000000000000000000000000000000000000000000000000000081526004016106af90612ca6565b60405180910390fd5b6106c38383836113ed565b505050565b606060006106fc6106d884611649565b6040516020016106e89190612977565b6040516020818303038152906040526117f6565b90506009805490508161070f9190613006565b90506009818154811061074b577f4e487b7100000000000000000000000000000000000000000000000000000000600052603260045260246000fd5b90600052602060002001805461076090612f5a565b80601f016020809104026020016040519081016040528092919081815260200182805461078c90612f5a565b80156107d95780601f106107ae576101008083540402835291602001916107d9565b820191906000526020600020905b8154815290600101906020018083116107bc57829003601f168201915b5050505050915050919050565b61080183838360405180602001604052806000815250610ca1565b505050565b6000806002600084815260200190815260200160002060009054906101000a900473ffffffffffffffffffffffffffffffffffffffff169050600073ffffffffffffffffffffffffffffffffffffffff168173ffffffffffffffffffffffffffffffffffffffff1614156108af576040517f08c379a00000000000000000000000000000000000000000000000000000000081526004016108a690612ba6565b60405180910390fd5b80915050919050565b60008073ffffffffffffffffffffffffffffffffffffffff168273ffffffffffffffffffffffffffffffffffffffff161415610929576040517f08c379a000000000000000000000000000000000000000000000000000000000815260040161092090612b86565b60405180910390fd5b600360008373ffffffffffffffffffffffffffffffffffffffff1673ffffffffffffffffffffffffffffffffffffffff168152602001908152602001600020549050919050565b60606001805461097f90612f5a565b80601f01602080910402602001604051908101604052809291908181526020018280546109ab90612f5a565b80156109f85780601f106109cd576101008083540402835291602001916109f8565b820191906000526020600020905b8154815290600101906020018083116109db57829003601f168201915b5050505050905090565b610a0a61124e565b73ffffffffffffffffffffffffffffffffffffffff168273ffffffffffffffffffffffffffffffffffffffff161415610a78576040517f08c379a0000000000000000000000000000000000000000000000000000000008152600401610a6f90612b26565b60405180910390fd5b8060056000610a8561124e565b73ffffffffffffffffffffffffffffffffffffffff1673ffffffffffffffffffffffffffffffffffffffff16815260200190815260200160002060008473ffffffffffffffffffffffffffffffffffffffff1673ffffffffffffffffffffffffffffffffffffffff16815260200190815260200160002060006101000a81548160ff0219169083151502179055508173ffffffffffffffffffffffffffffffffffffffff16610b3261124e565b73ffffffffffffffffffffffffffffffffffffffff167f17307eab39ab6107e8899845ad3d59bd9653f200f220920489ca2b5937696c3183604051610b779190612a4b565b60405180910390a35050565b60606000610bb7610b9384611649565b604051602001610ba39190612910565b6040516020818303038152906040526117f6565b9050600a8054905081610bca9190613006565b9050600a8181548110610c06577f4e487b7100000000000000000000000000000000000000000000000000000000600052603260045260246000fd5b906000526020600020018054610c1b90612f5a565b80601f0160208091040260200160405190810160405280929190818152602001828054610c4790612f5a565b8015610c945780601f10610c6957610100808354040283529160200191610c94565b820191906000526020600020905b815481529060010190602001808311610c7757829003601f168201915b5050505050915050919050565b610cb2610cac61124e565b8361130f565b610cf1576040517f08c379a0000000000000000000000000000000000000000000000000000000008152600401610ce890612ca6565b60405180910390fd5b610cfd84848484611829565b50505050565b6060610d0e826111e2565b610d4d576040517f08c379a0000000000000000000000000000000000000000000000000000000008152600401610d4490612c06565b60405180910390fd5b6000600660008481526020019081526020016000208054610d6d90612f5a565b80601f0160208091040260200160405190810160405280929190818152602001828054610d9990612f5a565b8015610de65780601f10610dbb57610100808354040283529160200191610de6565b820191906000526020600020905b815481529060010190602001808311610dc957829003601f168201915b505050505090506000610df7611885565b9050600081511415610e0d578192505050610e50565b600082511115610e42578082604051602001610e2a92919061289b565b60405160208183030381529060405292505050610e50565b610e4b8461189c565b925050505b919050565b6000610e616007611943565b90506000610e6e826106c8565b90506000610e7b83610b83565b905060008282604051602001610e9292919061289b565b60405160208183030381529060405290506000600882604051602001610eb99291906128bf565b60405160208183030381529060405290506000610efe83610ed984611951565b604051602001610eea929190612932565b604051602081830303815290604052611951565b9050600081604051602001610f139190612999565b6040516020818303038152906040529050610f626040518060400160405280601581526020017f0a2d2d2d2d2d2d2d2d2d2d2d2d2d2d2d2d2d2d2d2d00000000000000000000008152506110df565b610f8a81604051602001610f7691906128ee565b6040516020818303038152906040526110df565b610fc86040518060400160405280601581526020017f2d2d2d2d2d2d2d2d2d2d2d2d2d2d2d2d2d2d2d2d0a00000000000000000000008152506110df565b610fd23388611b0f565b610fdc8782611b2d565b610fff6040518060600160405280602581526020016137bf602591398833611ba1565b6110096007611c40565b7febb98688741ffa4c7589bf325de30cf7becb63de567842e1ccdb6cb949fdc82c338860405161103a929190612a22565b60405180910390a150505050505050565b6000600560008473ffffffffffffffffffffffffffffffffffffffff1673ffffffffffffffffffffffffffffffffffffffff16815260200190815260200160002060008373ffffffffffffffffffffffffffffffffffffffff1673ffffffffffffffffffffffffffffffffffffffff16815260200190815260200160002060009054906101000a900460ff16905092915050565b611175816040516024016110f39190612a66565b6040516020818303038152906040527f41304fac000000000000000000000000000000000000000000000000000000007bffffffffffffffffffffffffffffffffffffffffffffffffffffffff19166020820180517bffffffffffffffffffffffffffffffffffffffffffffffffffffffff8381831617835250505050611c56565b50565b60007f01ffc9a7000000000000000000000000000000000000000000000000000000007bffffffffffffffffffffffffffffffffffffffffffffffffffffffff1916827bffffffffffffffffffffffffffffffffffffffffffffffffffffffff1916149050919050565b60008073ffffffffffffffffffffffffffffffffffffffff166002600084815260200190815260200160002060009054906101000a900473ffffffffffffffffffffffffffffffffffffffff1673ffffffffffffffffffffffffffffffffffffffff1614159050919050565b600033905090565b816004600083815260200190815260200160002060006101000a81548173ffffffffffffffffffffffffffffffffffffffff021916908373ffffffffffffffffffffffffffffffffffffffff160217905550808273ffffffffffffffffffffffffffffffffffffffff166112c983610806565b73ffffffffffffffffffffffffffffffffffffffff167f8c5be1e5ebec7d5bd14f71427d1e84f3dd0314c0f7b2291e5b200ac8c7c3b92560405160405180910390a45050565b600061131a826111e2565b611359576040517f08c379a000000000000000000000000000000000000000000000000000000000815260040161135090612b46565b60405180910390fd5b600061136483610806565b90508073ffffffffffffffffffffffffffffffffffffffff168473ffffffffffffffffffffffffffffffffffffffff1614806113d357508373ffffffffffffffffffffffffffffffffffffffff166113bb846104cb565b73ffffffffffffffffffffffffffffffffffffffff16145b806113e457506113e3818561104b565b5b91505092915050565b8273ffffffffffffffffffffffffffffffffffffffff1661140d82610806565b73ffffffffffffffffffffffffffffffffffffffff1614611463576040517f08c379a000000000000000000000000000000000000000000000000000000000815260040161145a90612c46565b60405180910390fd5b600073ffffffffffffffffffffffffffffffffffffffff168273ffffffffffffffffffffffffffffffffffffffff1614156114d3576040517f08c379a00000000000000000000000000000000000000000000000000000000081526004016114ca90612b06565b60405180910390fd5b6114de838383611c7f565b6114e9600082611256565b6001600360008573ffffffffffffffffffffffffffffffffffffffff1673ffffffffffffffffffffffffffffffffffffffff16815260200190815260200160002060008282546115399190612e70565b925050819055506001600360008473ffffffffffffffffffffffffffffffffffffffff1673ffffffffffffffffffffffffffffffffffffffff16815260200190815260200160002060008282546115909190612d8f565b92505081905550816002600083815260200190815260200160002060006101000a81548173ffffffffffffffffffffffffffffffffffffffff021916908373ffffffffffffffffffffffffffffffffffffffff160217905550808273ffffffffffffffffffffffffffffffffffffffff168473ffffffffffffffffffffffffffffffffffffffff167fddf252ad1be2c89b69c2b068fc378daa952ba7f163c4a11628f55a4df523b3ef60405160405180910390a4505050565b60606000821415611691576040518060400160405280600181526020017f300000000000000000000000000000000000000000000000000000000000000081525090506117f1565b600082905060005b600082146116c35780806116ac90612fbd565b915050600a826116bc9190612de5565b9150611699565b60008167ffffffffffffffff811115611705577f4e487b7100000000000000000000000000000000000000000000000000000000600052604160045260246000fd5b6040519080825280601f01601f1916602001820160405280156117375781602001600182028036833780820191505090505b5090505b600085146117ea576001826117509190612e70565b9150600a8561175f9190613006565b603061176b9190612d8f565b60f81b8183815181106117a7577f4e487b7100000000000000000000000000000000000000000000000000000000600052603260045260246000fd5b60200101907effffffffffffffffffffffffffffffffffffffffffffffffffffffffffffff1916908160001a905350600a856117e39190612de5565b945061173b565b8093505050505b919050565b6000816040516020016118099190612884565b6040516020818303038152906040528051906020012060001c9050919050565b6118348484846113ed565b61184084848484611c84565b61187f576040517f08c379a000000000000000000000000000000000000000000000000000000000815260040161187690612ac6565b60405180910390fd5b50505050565b606060405180602001604052806000815250905090565b60606118a7826111e2565b6118e6576040517f08c379a00000000000000000000000000000000000000000000000000000000081526004016118dd90612c66565b60405180910390fd5b60006118f0611885565b90506000815111611910576040518060200160405280600081525061193b565b8061191a84611649565b60405160200161192b92919061289b565b6040516020818303038152906040525b915050919050565b600081600001549050919050565b6060600082519050600081141561197a5760405180602001604052806000815250915050611b0a565b6000600360028361198b9190612d8f565b6119959190612de5565b60046119a19190612e16565b905060006020826119b29190612d8f565b67ffffffffffffffff8111156119f1577f4e487b7100000000000000000000000000000000000000000000000000000000600052604160045260246000fd5b6040519080825280601f01601f191660200182016040528015611a235781602001600182028036833780820191505090505b50905060006040518060600160405280604081526020016137e4604091399050600181016020830160005b86811015611ac75760038101905062ffffff818a015116603f8160121c168401518060081b905060ff603f83600c1c1686015116810190508060081b905060ff603f8360061c1686015116810190508060081b905060ff603f831686015116810190508060e01b90508084526004840193505050611a4e565b506003860660018114611ae15760028114611af157611afc565b613d3d60f01b6002830352611afc565b603d60f81b60018303525b508484525050819450505050505b919050565b611b29828260405180602001604052806000815250611e1b565b5050565b611b36826111e2565b611b75576040517f08c379a0000000000000000000000000000000000000000000000000000000008152600401611b6c90612bc6565b60405180910390fd5b80600660008481526020019081526020016000209080519060200190611b9c929190612057565b505050565b611c3b838383604051602401611bb993929190612a88565b6040516020818303038152906040527fe3849f79000000000000000000000000000000000000000000000000000000007bffffffffffffffffffffffffffffffffffffffffffffffffffffffff19166020820180517bffffffffffffffffffffffffffffffffffffffffffffffffffffffff8381831617835250505050611c56565b505050565b6001816000016000828254019250508190555050565b60008151905060006a636f6e736f6c652e6c6f679050602083016000808483855afa5050505050565b505050565b6000611ca58473ffffffffffffffffffffffffffffffffffffffff16611e76565b15611e0e578373ffffffffffffffffffffffffffffffffffffffff1663150b7a02611cce61124e565b8786866040518563ffffffff1660e01b8152600401611cf094939291906129d6565b602060405180830381600087803b158015611d0a57600080fd5b505af1925050508015611d3b57506040513d601f19601f82011682018060405250810190611d38919061239b565b60015b611dbe573d8060008114611d6b576040519150601f19603f3d011682016040523d82523d6000602084013e611d70565b606091505b50600081511415611db6576040517f08c379a0000000000000000000000000000000000000000000000000000000008152600401611dad90612ac6565b60405180910390fd5b805181602001fd5b63150b7a0260e01b7bffffffffffffffffffffffffffffffffffffffffffffffffffffffff1916817bffffffffffffffffffffffffffffffffffffffffffffffffffffffff191614915050611e13565b600190505b949350505050565b611e258383611e89565b611e326000848484611c84565b611e71576040517f08c379a0000000000000000000000000000000000000000000000000000000008152600401611e6890612ac6565b60405180910390fd5b505050565b600080823b905060008111915050919050565b600073ffffffffffffffffffffffffffffffffffffffff168273ffffffffffffffffffffffffffffffffffffffff161415611ef9576040517f08c379a0000000000000000000000000000000000000000000000000000000008152600401611ef090612be6565b60405180910390fd5b611f02816111e2565b15611f42576040517f08c379a0000000000000000000000000000000000000000000000000000000008152600401611f3990612ae6565b60405180910390fd5b611f4e60008383611c7f565b6001600360008473ffffffffffffffffffffffffffffffffffffffff1673ffffffffffffffffffffffffffffffffffffffff1681526020019081526020016000206000828254611f9e9190612d8f565b92505081905550816002600083815260200190815260200160002060006101000a81548173ffffffffffffffffffffffffffffffffffffffff021916908373ffffffffffffffffffffffffffffffffffffffff160217905550808273ffffffffffffffffffffffffffffffffffffffff16600073ffffffffffffffffffffffffffffffffffffffff167fddf252ad1be2c89b69c2b068fc378daa952ba7f163c4a11628f55a4df523b3ef60405160405180910390a45050565b82805461206390612f5a565b90600052602060002090601f01602090048101928261208557600085556120cc565b82601f1061209e57805160ff19168380011785556120cc565b828001600101855582156120cc579182015b828111156120cb5782518255916020019190600101906120b0565b5b5090506120d991906120dd565b5090565b5b808211156120f65760008160009055506001016120de565b5090565b600061210d61210884612d06565b612ce1565b90508281526020810184848401111561212557600080fd5b612130848285612f18565b509392505050565b60008135905061214781613762565b92915050565b60008135905061215c81613779565b92915050565b60008135905061217181613790565b92915050565b60008151905061218681613790565b92915050565b600082601f83011261219d57600080fd5b81356121ad8482602086016120fa565b91505092915050565b6000813590506121c5816137a7565b92915050565b6000602082840312156121dd57600080fd5b60006121eb84828501612138565b91505092915050565b6000806040838503121561220757600080fd5b600061221585828601612138565b925050602061222685828601612138565b9150509250929050565b60008060006060848603121561224557600080fd5b600061225386828701612138565b935050602061226486828701612138565b9250506040612275868287016121b6565b9150509250925092565b6000806000806080858703121561229557600080fd5b60006122a387828801612138565b94505060206122b487828801612138565b93505060406122c5878288016121b6565b925050606085013567ffffffffffffffff8111156122e257600080fd5b6122ee8782880161218c565b91505092959194509250565b6000806040838503121561230d57600080fd5b600061231b85828601612138565b925050602061232c8582860161214d565b9150509250929050565b6000806040838503121561234957600080fd5b600061235785828601612138565b9250506020612368858286016121b6565b9150509250929050565b60006020828403121561238457600080fd5b600061239284828501612162565b91505092915050565b6000602082840312156123ad57600080fd5b60006123bb84828501612177565b91505092915050565b6000602082840312156123d657600080fd5b60006123e4848285016121b6565b91505092915050565b6123f681612ea4565b82525050565b61240581612eb6565b82525050565b600061241682612d4c565b6124208185612d62565b9350612430818560208601612f27565b612439816130f3565b840191505092915050565b600061244f82612d57565b6124598185612d73565b9350612469818560208601612f27565b612472816130f3565b840191505092915050565b600061248882612d57565b6124928185612d84565b93506124a2818560208601612f27565b80840191505092915050565b600081546124bb81612f5a565b6124c58186612d84565b945060018216600081146124e057600181146124f157612524565b60ff19831686528186019350612524565b6124fa85612d37565b60005b8381101561251c578154818901526001820191506020810190506124fd565b838801955050505b50505092915050565b600061253a602583612d84565b915061254582613104565b602582019050919050565b600061255d603283612d73565b915061256882613153565b604082019050919050565b6000612580601c83612d73565b915061258b826131a2565b602082019050919050565b60006125a3602483612d73565b91506125ae826131cb565b604082019050919050565b60006125c6601983612d73565b91506125d18261321a565b602082019050919050565b60006125e9600b83612d84565b91506125f482613243565b600b82019050919050565b600061260c602c83612d73565b91506126178261326c565b604082019050919050565b600061262f600d83612d84565b915061263a826132bb565b600d82019050919050565b6000612652603883612d73565b915061265d826132e4565b604082019050919050565b6000612675602a83612d73565b915061268082613333565b604082019050919050565b6000612698602983612d73565b91506126a382613382565b604082019050919050565b60006126bb602e83612d73565b91506126c6826133d1565b604082019050919050565b60006126de600283612d84565b91506126e982613420565b600282019050919050565b6000612701602083612d73565b915061270c82613449565b602082019050919050565b6000612724603183612d73565b915061272f82613472565b604082019050919050565b6000612747602c83612d73565b9150612752826134c1565b604082019050919050565b600061276a602983612d73565b915061277582613510565b604082019050919050565b600061278d602f83612d73565b91506127988261355f565b604082019050919050565b60006127b0600a83612d84565b91506127bb826135ae565b600a82019050919050565b60006127d3602183612d73565b91506127de826135d7565b604082019050919050565b60006127f6600a83612d84565b915061280182613626565b600a82019050919050565b6000612819601d83612d84565b91506128248261364f565b601d82019050919050565b600061283c607683612d84565b915061284782613678565b607682019050919050565b600061285f603183612d73565b915061286a82613713565b604082019050919050565b61287e81612f0e565b82525050565b6000612890828461247d565b915081905092915050565b60006128a7828561247d565b91506128b3828461247d565b91508190509392505050565b60006128cb82856124ae565b91506128d7828461247d565b91506128e282612622565b91508190509392505050565b60006128f98261252d565b9150612905828461247d565b915081905092915050565b600061291b826125dc565b9150612927828461247d565b915081905092915050565b600061293d826127a3565b9150612949828561247d565b91506129548261282f565b9150612960828461247d565b915061296b826126d1565b91508190509392505050565b6000612982826127e9565b915061298e828461247d565b915081905092915050565b60006129a48261280c565b91506129b0828461247d565b915081905092915050565b60006020820190506129d060008301846123ed565b92915050565b60006080820190506129eb60008301876123ed565b6129f860208301866123ed565b612a056040830185612875565b8181036060830152612a17818461240b565b905095945050505050565b6000604082019050612a3760008301856123ed565b612a446020830184612875565b9392505050565b6000602082019050612a6060008301846123fc565b92915050565b60006020820190508181036000830152612a808184612444565b905092915050565b60006060820190508181036000830152612aa28186612444565b9050612ab16020830185612875565b612abe60408301846123ed565b949350505050565b60006020820190508181036000830152612adf81612550565b9050919050565b60006020820190508181036000830152612aff81612573565b9050919050565b60006020820190508181036000830152612b1f81612596565b9050919050565b60006020820190508181036000830152612b3f816125b9565b9050919050565b60006020820190508181036000830152612b5f816125ff565b9050919050565b60006020820190508181036000830152612b7f81612645565b9050919050565b60006020820190508181036000830152612b9f81612668565b9050919050565b60006020820190508181036000830152612bbf8161268b565b9050919050565b60006020820190508181036000830152612bdf816126ae565b9050919050565b60006020820190508181036000830152612bff816126f4565b9050919050565b60006020820190508181036000830152612c1f81612717565b9050919050565b60006020820190508181036000830152612c3f8161273a565b9050919050565b60006020820190508181036000830152612c5f8161275d565b9050919050565b60006020820190508181036000830152612c7f81612780565b9050919050565b60006020820190508181036000830152612c9f816127c6565b9050919050565b60006020820190508181036000830152612cbf81612852565b9050919050565b6000602082019050612cdb6000830184612875565b92915050565b6000612ceb612cfc565b9050612cf78282612f8c565b919050565b6000604051905090565b600067ffffffffffffffff821115612d2157612d206130c4565b5b612d2a826130f3565b9050602081019050919050565b60008190508160005260206000209050919050565b600081519050919050565b600081519050919050565b600082825260208201905092915050565b600082825260208201905092915050565b600081905092915050565b6000612d9a82612f0e565b9150612da583612f0e565b9250827fffffffffffffffffffffffffffffffffffffffffffffffffffffffffffffffff03821115612dda57612dd9613037565b5b828201905092915050565b6000612df082612f0e565b9150612dfb83612f0e565b925082612e0b57612e0a613066565b5b828204905092915050565b6000612e2182612f0e565b9150612e2c83612f0e565b9250817fffffffffffffffffffffffffffffffffffffffffffffffffffffffffffffffff0483118215151615612e6557612e64613037565b5b828202905092915050565b6000612e7b82612f0e565b9150612e8683612f0e565b925082821015612e9957612e98613037565b5b828203905092915050565b6000612eaf82612eee565b9050919050565b60008115159050919050565b60007fffffffff0000000000000000000000000000000000000000000000000000000082169050919050565b600073ffffffffffffffffffffffffffffffffffffffff82169050919050565b6000819050919050565b82818337600083830152505050565b60005b83811015612f45578082015181840152602081019050612f2a565b83811115612f54576000848401525b50505050565b60006002820490506001821680612f7257607f821691505b60208210811415612f8657612f85613095565b5b50919050565b612f95826130f3565b810181811067ffffffffffffffff82111715612fb457612fb36130c4565b5b80604052505050565b6000612fc882612f0e565b91507fffffffffffffffffffffffffffffffffffffffffffffffffffffffffffffffff821415612ffb57612ffa613037565b5b600182019050919050565b600061301182612f0e565b915061301c83612f0e565b92508261302c5761302b613066565b5b828206905092915050565b7f4e487b7100000000000000000000000000000000000000000000000000000000600052601160045260246000fd5b7f4e487b7100000000000000000000000000000000000000000000000000000000600052601260045260246000fd5b7f4e487b7100000000000000000000000000000000000000000000000000000000600052602260045260246000fd5b7f4e487b7100000000000000000000000000000000000000000000000000000000600052604160045260246000fd5b6000601f19601f8301169050919050565b7f68747470733a2f2f6e6674707265766965772e30786465762e636f6465732f3f60008201527f636f64653d000000000000000000000000000000000000000000000000000000602082015250565b7f4552433732313a207472616e7366657220746f206e6f6e20455243373231526560008201527f63656976657220696d706c656d656e7465720000000000000000000000000000602082015250565b7f4552433732313a20746f6b656e20616c7265616479206d696e74656400000000600082015250565b7f4552433732313a207472616e7366657220746f20746865207a65726f2061646460008201527f7265737300000000000000000000000000000000000000000000000000000000602082015250565b7f4552433732313a20617070726f766520746f2063616c6c657200000000000000600082015250565b7f5345434f4e445f574f5244000000000000000000000000000000000000000000600082015250565b7f4552433732313a206f70657261746f7220717565727920666f72206e6f6e657860008201527f697374656e7420746f6b656e0000000000000000000000000000000000000000602082015250565b7f3c2f746578743e3c2f7376673e00000000000000000000000000000000000000600082015250565b7f4552433732313a20617070726f76652063616c6c6572206973206e6f74206f7760008201527f6e6572206e6f7220617070726f76656420666f7220616c6c0000000000000000602082015250565b7f4552433732313a2062616c616e636520717565727920666f7220746865207a6560008201527f726f206164647265737300000000000000000000000000000000000000000000602082015250565b7f4552433732313a206f776e657220717565727920666f72206e6f6e657869737460008201527f656e7420746f6b656e0000000000000000000000000000000000000000000000602082015250565b7f45524337323155524953746f726167653a2055524920736574206f66206e6f6e60008201527f6578697374656e7420746f6b656e000000000000000000000000000000000000602082015250565b7f227d000000000000000000000000000000000000000000000000000000000000600082015250565b7f4552433732313a206d696e7420746f20746865207a65726f2061646472657373600082015250565b7f45524337323155524953746f726167653a2055524920717565727920666f722060008201527f6e6f6e6578697374656e7420746f6b656e000000000000000000000000000000602082015250565b7f4552433732313a20617070726f76656420717565727920666f72206e6f6e657860008201527f697374656e7420746f6b656e0000000000000000000000000000000000000000602082015250565b7f4552433732313a207472616e73666572206f6620746f6b656e2074686174206960008201527f73206e6f74206f776e0000000000000000000000000000000000000000000000602082015250565b7f4552433732314d657461646174613a2055524920717565727920666f72206e6f60008201527f6e6578697374656e7420746f6b656e0000000000000000000000000000000000602082015250565b7f7b226e616d65223a202200000000000000000000000000000000000000000000600082015250565b7f4552433732313a20617070726f76616c20746f2063757272656e74206f776e6560008201527f7200000000000000000000000000000000000000000000000000000000000000602082015250565b7f46495253545f574f524400000000000000000000000000000000000000000000600082015250565b7f646174613a6170706c69636174696f6e2f6a736f6e3b6261736536342c000000600082015250565b7f222c20226465736372697074696f6e223a202244656d6f6e20736c617965722060008201527f636f6c6c656374696f6e2062792062696771202874687820746f206275696c6460208201527f73706163652070726f6a656374292e222c2022696d616765223a20226461746160408201527f3a696d6167652f7376672b786d6c3b6261736536342c00000000000000000000606082015250565b7f4552433732313a207472616e736665722063616c6c6572206973206e6f74206f60008201527f776e6572206e6f7220617070726f766564000000000000000000000000000000602082015250565b61376b81612ea4565b811461377657600080fd5b50565b61378281612eb6565b811461378d57600080fd5b50565b61379981612ec2565b81146137a457600080fd5b50565b6137b081612f0e565b81146137bb57600080fd5b5056fe416e204e465420772f20494420257320686173206265656e206d696e74656420746f2025734142434445464748494a4b4c4d4e4f505152535455565758595a6162636465666768696a6b6c6d6e6f707172737475767778797a303132333435363738392b2fa26469706673582212206f071d866eb596c10814ca259243116ca8829483938a81a77feca4f45b9fc93064736f6c634300080400333c73766720786d6c6e733d27687474703a2f2f7777772e77332e6f72672f323030302f73766727207072657365727665417370656374526174696f3d27784d696e594d696e206d656574272076696577426f783d273020302033353020333530273e3c7374796c653e2e62617365207b2066696c6c3a2077686974653b20666f6e742d66616d696c793a2073657269663b20666f6e742d73697a653a20323470783b207d3c2f7374796c653e3c726563742077696474683d273130302527206865696768743d2731303025272066696c6c3d27626c61636b27202f3e3c7465787420783d273530252720793d273530252720636c6173733d27626173652720646f6d696e616e742d626173656c696e653d276d6964646c652720746578742d616e63686f723d276d6964646c65273e",
  "linkReferences": {},
  "deployedLinkReferences": {}
}