{
  "_format": "hh-sol-artifact-1",
  "contractName": "WavePortal",
  "sourceName": "contracts/WavePortal.sol",
  "abi": [
    {
      "inputs": [],
      "stateMutability": "payable",
      "type": "constructor"
    },
    {
      "anonymous": false,
      "inputs": [
        {
          "indexed": true,
          "internalType": "address",
          "name": "from",
          "type": "address"
        },
        {
          "indexed": false,
          "internalType": "uint256",
          "name": "timestamp",
          "type": "uint256"
        },
        {
          "indexed": false,
          "internalType": "string",
          "name": "message",
          "type": "string"
        }
      ],
      "name": "NewWave",
      "type": "event"
    },
    {
      "inputs": [],
      "name": "getAllWaves",
      "outputs": [
        {
          "components": [
            {
              "internalType": "address",
              "name": "waver",
              "type": "address"
            },
            {
              "internalType": "string",
              "name": "message",
              "type": "string"
            },
            {
              "internalType": "uint256",
              "name": "timestamp",
              "type": "uint256"
            }
          ],
          "internalType": "struct WavePortal.Wave[]",
          "name": "",
          "type": "tuple[]"
        }
      ],
      "stateMutability": "view",
      "type": "function"
    },
    {
      "inputs": [],
      "name": "getTotalWaves",
      "outputs": [
        {
          "internalType": "uint256",
          "name": "",
          "type": "uint256"
        }
      ],
      "stateMutability": "view",
      "type": "function"
    },
    {
      "inputs": [
        {
          "internalType": "address",
          "name": "_waver",
          "type": "address"
        }
      ],
      "name": "getWavesOf",
      "outputs": [
        {
          "internalType": "uint256",
          "name": "",
          "type": "uint256"
        }
      ],
      "stateMutability": "view",
      "type": "function"
    },
    {
      "inputs": [
        {
          "internalType": "string",
          "name": "_message",
          "type": "string"
        }
      ],
      "name": "wave",
      "outputs": [],
      "stateMutability": "nonpayable",
      "type": "function"
    }
  ],
  "bytecode": "0x60806040526200004f6040518060400160405280601481526020017f436f6e747261637420636f6e73747275637465640000000000000000000000008152506200007760201b6200074d1760201c565b606444426200005f9190620001c4565b6200006b919062000261565b60008190555062000308565b62000117816040516024016200008e919062000184565b6040516020818303038152906040527f41304fac000000000000000000000000000000000000000000000000000000007bffffffffffffffffffffffffffffffffffffffffffffffffffffffff19166020820180517bffffffffffffffffffffffffffffffffffffffffffffffffffffffff83818316178352505050506200011a60201b60201c565b50565b60008151905060006a636f6e736f6c652e6c6f679050602083016000808483855afa5050505050565b60006200015082620001a8565b6200015c8185620001b3565b93506200016e8185602086016200022b565b6200017981620002f7565b840191505092915050565b60006020820190508181036000830152620001a0818462000143565b905092915050565b600081519050919050565b600082825260208201905092915050565b6000620001d18262000221565b9150620001de8362000221565b9250827fffffffffffffffffffffffffffffffffffffffffffffffffffffffffffffffff0382111562000216576200021562000299565b5b828201905092915050565b6000819050919050565b60005b838110156200024b5780820151818401526020810190506200022e565b838111156200025b576000848401525b50505050565b60006200026e8262000221565b91506200027b8362000221565b9250826200028e576200028d620002c8565b5b828206905092915050565b7f4e487b7100000000000000000000000000000000000000000000000000000000600052601160045260246000fd5b7f4e487b7100000000000000000000000000000000000000000000000000000000600052601260045260246000fd5b6000601f19601f8301169050919050565b61133880620003186000396000f3fe608060405234801561001057600080fd5b506004361061004c5760003560e01c806331cd160214610051578063449d46c0146100815780639a2cdc081461009d578063bd43a908146100bb575b600080fd5b61006b60048036038101906100669190610b06565b6100d9565b6040516100789190610eda565b60405180910390f35b61009b60048036038101906100969190610b2f565b610122565b005b6100a56105b1565b6040516100b29190610eda565b60405180910390f35b6100c36105fc565b6040516100d09190610d98565b60405180910390f35b6000600260008373ffffffffffffffffffffffffffffffffffffffff1673ffffffffffffffffffffffffffffffffffffffff168152602001908152602001600020549050919050565b42600f600360003373ffffffffffffffffffffffffffffffffffffffff1673ffffffffffffffffffffffffffffffffffffffff1681526020019081526020016000205461016f9190610fec565b106101af576040517f08c379a00000000000000000000000000000000000000000000000000000000081526004016101a690610e9a565b60405180910390fd5b42600360003373ffffffffffffffffffffffffffffffffffffffff1673ffffffffffffffffffffffffffffffffffffffff1681526020019081526020016000208190555060018060008282546102059190610fec565b925050819055506001600260003373ffffffffffffffffffffffffffffffffffffffff1673ffffffffffffffffffffffffffffffffffffffff168152602001908152602001600020600082825461025c9190610fec565b92505081905550600460405180606001604052803373ffffffffffffffffffffffffffffffffffffffff16815260200183815260200142815250908060018154018082558091505060019003906000526020600020906003020160009091909190915060008201518160000160006101000a81548173ffffffffffffffffffffffffffffffffffffffff021916908373ffffffffffffffffffffffffffffffffffffffff16021790555060208201518160010190805190602001906103229291906109e6565b50604082015181600201555050606460005442446103409190610fec565b61034a9190610fec565b6103549190611123565b6000819055506032600054116104a0576103a36040518060400160405280600781526020017f257320776f6e2100000000000000000000000000000000000000000000000000815250336107e6565b6000655af3107a40009050478111156103f1576040517f08c379a00000000000000000000000000000000000000000000000000000000081526004016103e890610e7a565b60405180910390fd5b60003373ffffffffffffffffffffffffffffffffffffffff168260405161041790610d83565b60006040518083038185875af1925050503d8060008114610454576040519150601f19603f3d011682016040523d82523d6000602084013e610459565b606091505b505090508061049d576040517f08c379a000000000000000000000000000000000000000000000000000000000815260040161049490610eba565b60405180910390fd5b50505b3373ffffffffffffffffffffffffffffffffffffffff167f5f7e16dc676677766a70e9c5628aa6c54ddb8b6e5188e2ae1e1f17f1ffbea71642836040516104e8929190610ef5565b60405180910390a261052f6040518060400160405280600c81526020017f2573206861732077617665640000000000000000000000000000000000000000815250336107e6565b6105ae6040518060400160405280601e81526020017f25732068617320776176656420617420796f752025692074696d65287329000081525033600260003373ffffffffffffffffffffffffffffffffffffffff1673ffffffffffffffffffffffffffffffffffffffff16815260200190815260200160002054610882565b50565b60006105f46040518060400160405280601681526020017f5765206861766520257320746f74616c20776176657300000000000000000000815250600154610921565b600154905090565b60606004805480602002602001604051908101604052809291908181526020016000905b8282101561074457838290600052602060002090600302016040518060600160405290816000820160009054906101000a900473ffffffffffffffffffffffffffffffffffffffff1673ffffffffffffffffffffffffffffffffffffffff1673ffffffffffffffffffffffffffffffffffffffff1681526020016001820180546106a9906110c0565b80601f01602080910402602001604051908101604052809291908181526020018280546106d5906110c0565b80156107225780601f106106f757610100808354040283529160200191610722565b820191906000526020600020905b81548152906001019060200180831161070557829003601f168201915b5050505050815260200160028201548152505081526020019060010190610620565b50505050905090565b6107e3816040516024016107619190610dba565b6040516020818303038152906040527f41304fac000000000000000000000000000000000000000000000000000000007bffffffffffffffffffffffffffffffffffffffffffffffffffffffff19166020820180517bffffffffffffffffffffffffffffffffffffffffffffffffffffffff83818316178352505050506109bd565b50565b61087e82826040516024016107fc929190610ddc565b6040516020818303038152906040527f319af333000000000000000000000000000000000000000000000000000000007bffffffffffffffffffffffffffffffffffffffffffffffffffffffff19166020820180517bffffffffffffffffffffffffffffffffffffffffffffffffffffffff83818316178352505050506109bd565b5050565b61091c83838360405160240161089a93929190610e0c565b6040516020818303038152906040527f07c81217000000000000000000000000000000000000000000000000000000007bffffffffffffffffffffffffffffffffffffffffffffffffffffffff19166020820180517bffffffffffffffffffffffffffffffffffffffffffffffffffffffff83818316178352505050506109bd565b505050565b6109b98282604051602401610937929190610e4a565b6040516020818303038152906040527f9710a9d0000000000000000000000000000000000000000000000000000000007bffffffffffffffffffffffffffffffffffffffffffffffffffffffff19166020820180517bffffffffffffffffffffffffffffffffffffffffffffffffffffffff83818316178352505050506109bd565b5050565b60008151905060006a636f6e736f6c652e6c6f679050602083016000808483855afa5050505050565b8280546109f2906110c0565b90600052602060002090601f016020900481019282610a145760008555610a5b565b82601f10610a2d57805160ff1916838001178555610a5b565b82800160010185558215610a5b579182015b82811115610a5a578251825591602001919060010190610a3f565b5b509050610a689190610a6c565b5090565b5b80821115610a85576000816000905550600101610a6d565b5090565b6000610a9c610a9784610f4a565b610f25565b905082815260208101848484011115610ab457600080fd5b610abf84828561107e565b509392505050565b600081359050610ad6816112eb565b92915050565b600082601f830112610aed57600080fd5b8135610afd848260208601610a89565b91505092915050565b600060208284031215610b1857600080fd5b6000610b2684828501610ac7565b91505092915050565b600060208284031215610b4157600080fd5b600082013567ffffffffffffffff811115610b5b57600080fd5b610b6784828501610adc565b91505092915050565b6000610b7c8383610d15565b905092915050565b610b8d81611042565b82525050565b610b9c81611042565b82525050565b6000610bad82610f8b565b610bb78185610fae565b935083602082028501610bc985610f7b565b8060005b85811015610c055784840389528151610be68582610b70565b9450610bf183610fa1565b925060208a01995050600181019050610bcd565b50829750879550505050505092915050565b6000610c2282610f96565b610c2c8185610fca565b9350610c3c81856020860161108d565b610c4581611210565b840191505092915050565b6000610c5b82610f96565b610c658185610fdb565b9350610c7581856020860161108d565b610c7e81611210565b840191505092915050565b6000610c96602583610fdb565b9150610ca182611221565b604082019050919050565b6000610cb9600083610fbf565b9150610cc482611270565b600082019050919050565b6000610cdc600a83610fdb565b9150610ce782611273565b602082019050919050565b6000610cff602683610fdb565b9150610d0a8261129c565b604082019050919050565b6000606083016000830151610d2d6000860182610b84565b5060208301518482036020860152610d458282610c17565b9150506040830151610d5a6040860182610d65565b508091505092915050565b610d6e81611074565b82525050565b610d7d81611074565b82525050565b6000610d8e82610cac565b9150819050919050565b60006020820190508181036000830152610db28184610ba2565b905092915050565b60006020820190508181036000830152610dd48184610c50565b905092915050565b60006040820190508181036000830152610df68185610c50565b9050610e056020830184610b93565b9392505050565b60006060820190508181036000830152610e268186610c50565b9050610e356020830185610b93565b610e426040830184610d74565b949350505050565b60006040820190508181036000830152610e648185610c50565b9050610e736020830184610d74565b9392505050565b60006020820190508181036000830152610e9381610c89565b9050919050565b60006020820190508181036000830152610eb381610ccf565b9050919050565b60006020820190508181036000830152610ed381610cf2565b9050919050565b6000602082019050610eef6000830184610d74565b92915050565b6000604082019050610f0a6000830185610d74565b8181036020830152610f1c8184610c50565b90509392505050565b6000610f2f610f40565b9050610f3b82826110f2565b919050565b6000604051905090565b600067ffffffffffffffff821115610f6557610f646111e1565b5b610f6e82611210565b9050602081019050919050565b6000819050602082019050919050565b600081519050919050565b600081519050919050565b6000602082019050919050565b600082825260208201905092915050565b600081905092915050565b600082825260208201905092915050565b600082825260208201905092915050565b6000610ff782611074565b915061100283611074565b9250827fffffffffffffffffffffffffffffffffffffffffffffffffffffffffffffffff0382111561103757611036611154565b5b828201905092915050565b600061104d82611054565b9050919050565b600073ffffffffffffffffffffffffffffffffffffffff82169050919050565b6000819050919050565b82818337600083830152505050565b60005b838110156110ab578082015181840152602081019050611090565b838111156110ba576000848401525b50505050565b600060028204905060018216806110d857607f821691505b602082108114156110ec576110eb6111b2565b5b50919050565b6110fb82611210565b810181811067ffffffffffffffff8211171561111a576111196111e1565b5b80604052505050565b600061112e82611074565b915061113983611074565b92508261114957611148611183565b5b828206905092915050565b7f4e487b7100000000000000000000000000000000000000000000000000000000600052601160045260246000fd5b7f4e487b7100000000000000000000000000000000000000000000000000000000600052601260045260246000fd5b7f4e487b7100000000000000000000000000000000000000000000000000000000600052602260045260246000fd5b7f4e487b7100000000000000000000000000000000000000000000000000000000600052604160045260246000fd5b6000601f19601f8301169050919050565b7f4e6f20656e6f7567682065746820696e2074686520636f6e747261637420626160008201527f6c616e6365000000000000000000000000000000000000000000000000000000602082015250565b50565b7f576169742031206d696e00000000000000000000000000000000000000000000600082015250565b7f6661696c656420746f207769746864726177206d6f6e65792066726f6d20636f60008201527f6e74726163740000000000000000000000000000000000000000000000000000602082015250565b6112f481611042565b81146112ff57600080fd5b5056fea26469706673582212201e7ecae65b3a87dce0ea41193e9ae2fb1e69a06e6ffecdce5573aceaeaf457c064736f6c63430008040033",
  "linkReferences": {},
  "deployedLinkReferences": {}
}